:100000004EEF08F00000000000EF00F000000000DC
:0A0010000000000000000000F3D71C
:10001C000B840BAE19EF00F0010E036E026A016A3D
:0A002C00006A0A360232FF0E1200CD
:080036000AAE029E000E12004A
:10003E000B820BAE29EF00F00368026801680068BE
:08004E000A360232FF0E120017
:0E005600026A016A006A086A036A000E12005C
:10006400086A096A000E07620364B7EF00F00250E1
:1000740006180A6E075003267E0ED8A048EF00F03B
:10008400035ED8B0BBEF00F04CEF00F0035ED8A0E5
:10009400BFEF00F0028E068E02C00EF001C00BF01E
:1000A40000C00DF000500402F4CF0CF00150050222
:1000B400F4CF00F0F3CF08F00402F3500C26F45010
:1000C4000822000E00220D500502F3500C26F450B5
:1000D4000822000E002202500402F3500826F450B5
:1000E400002202500502016A000E0122F35000268C
:1000F400F45001220D500602F3500826F450002259
:10010400026A000E012202220B500602F35000265E
:10011400F4500122000E02220E500602F350012672
:10012400F450022202BE9FEF00F00836003601367A
:1001340002360306D8B4BFEF00F0B2EF00F0D88067
:10014400800E08640030000E002201220222D8A092
:10015400B2EF00F0023201320032034ABBEF00F08A
:100164000AAE029E000EC1EF00F0010E72DFC1EF75
:1001740000F0020E62DFC1EF00F0040E4DDF12004A
:0C0184000E0E0D6E0D2EFED700001200B6
:100190000CB00AEF01F00CA2B0EF01F00E6A000EF5
:1001A000026421EF01F0F00E0214D8A4ECEF00F08D
:1001B000023A01380F0B02260138F00B016E0038AD
:1001C0000F0B01260038F00B006E08380F0B0026CD
:1001D0000838F00B086E0E84D89002BE05EF01F0CF
:1001E00008360036013602360E2A02BE05EF01F04F
:1001F00008360036013602360E2A02BE05EF01F03F
:1002000008360036013602360E2A0E500364A6EF79
:1002100001F0035E0BBC08AEABEF01F0D880800E9E
:1002200008640030000E002201220222D8A0ABEFA9
:1002300001F0023201320032034AB0EF01F0ABEFBD
:1002400001F001C002F000C001F008C000F0086A2F
:10025000000E0E86026458EF01F0F00E0214D8A4CE
:1002600040EF01F0023A01380F0B02260138F00B83
:10027000016E00380F0B01260038F00B006E0E8463
:10028000D89002BE05EF01F00036013602360E2A84
:1002900002BE05EF01F00036013602360E2A02BE1C
:1002A00005EF01F00036013602360E2A05EF01F0A7
:1002B00001C002F000C001F0006A000E0E960E8828
:1002C000026485EF01F0F00E0214D8A470EF01F083
:1002D000023A01380F0B02260138F00B016E0E8432
:1002E000D89002BE05EF01F0013602360E2A02BE9A
:1002F00005EF01F0013602360E2A02BE05EF01F0CD
:10030000013602360E2A05EF01F001C002F0016A43
:10031000000E0E860264B5EF01F0F00E0214D8A4B0
:1003200094EF01F0023A0E84D89002BE05EF01F07E
:1003300002360E2A02BE05EF01F002360E2A02BE78
:1003400005EF01F002360E2A05EF01F0010E0C6EEA
:1003500065DEB8EF01F0020E0C6E6DDEB8EF01F055
:10036000040E0C6E6CDEB8EF01F0080E0C6E73DE3E
:02037000120079
:100372000D6A086A0050D8B4000C04180A6E0ABE4E
:100382000D1E0B6A04AE02D0041E042A00AE02D077
:10039200001E002A005004100A6E0ABE1FD004502C
:1003A200085E003600340836045008260036060E71
:1003B2000C6E00340836045000B0085E00A0082617
:1003C20000360C2EF6D700A008260BB015D00DAEC5
:1003D200000C001E002A081E082A000C04AE09D0D8
:1003E20000BE04D00050086E006AF1D7006A002AED
:1003F200000C001E0B2AD3D7082A0450085CD8A48C
:0E040200E6D7086A002A00AEE2D7FF0C12000F
:0E041000ACB202D00000FCD7C0C4ADFF120099
:10041E000A6A0350D8A40A800750D8A40A820A5048
:10042E00D8B472EF02F0030AD8B42BEF02F00AB080
:10043E0026EF02F006AE70EF02F06EEF02F002AEA3
:10044E006EEF02F070EF02F00250800B0A6E029E09
:10045E000650800B069E0A18D8B43CEF02F00A50E4
:10046E00D8B46EEF02F070EF02F00750035CD8B410
:10047E0046EF02F0D8A062EF02F068EF02F00650ED
:10048E00025CD8B450EF02F0D8A062EF02F068EF31
:10049E0002F00550015CD8B45AEF02F0D8A062EF1A
:1004AE0002F068EF02F00450005CD8B472EF02F074
:1004BE00D8B068EF02F00A52D8B470EF02F06EEFC7
:1004CE0002F00A52D8B46EEF02F070EF02F0D8804C
:0E04DE001200D8901200D880D88412001200AC
:1004EC00C0C404F0C1C405F004C002F005C003F0A0
:1004FC00044A052AC2C400F0C3C401F00401C24B73
:10050C00C32B00C0E9FF01C0EAFF02C0E1FF03C03A
:10051C00E2FFEECFE6FF02C0E9FF03C0EAFFEE52B6
:0E052C0001E0E2D7C0C400F0C1C401F012002B
:08053A000B6A0B86FF0E120094
:100542000C6A0E6A0250D8A4BAEF02F001C002F09F
:1005520000C001F0006A0E860250D8A4BAEF02F081
:1005620001C002F0016A0E960E880250D8B4CCEF98
:1005720002F00E50035ED8A4D8A0D1EF02F0D890BA
:1005820002BED6EF02F0003601360236032EC1EF6C
:1005920002F0D1EF02F0010E0C6E5CDDD9EF02F039
:1005A200020E0C6E3ADDD9EF02F0040E0C6E42DD43
:0205B200120035
:1005B4000900F5CFE6FF0006FBE10106F9E11200B0
:1005C400100E0001F56F040EF66FC00EF76F040EE7
:1005D400F86F5C0EF16F060EF26F000EF36F000EF3
:1005E400F46FFF0EE96FFF0EEA6F000EEB6F000E63
:1005F400EC6FFF0EED6FFF0EEE6F000EEF6F000E4F
:10060400F06FAC8A900EAB6E948E949C9EAA03D02D
:08061400AECF00F0FBD712008D
:10061C00C26A00017B1D006E0050C116070EC0128D
:10062C00C08EFFC000F000360090003600900050E5
:10063C00C212C280A1DDC282C2A201D0FDD7C4CF3A
:10064C0001F0006AC3500012000E0112C290120099
:10065C00AECF01F0ABA202D0AB98AB8801C000F0DA
:02066C0012007A
:10066E000401BE6BBF6BB4C4BAF4B5C4BBF4B6C45C
:10067E00BCF4B7C4BDF4BD51FF0A08E1BC51FF0A7A
:10068E0005E1BB51FF0A02E1BA51FF0A0CE1B8C401
:10069E00C0F4B9C4C1F47C0EC26F000EC36F1FDF6D
:1006AE00030E006EF1D1010E0001FF6F0401BCAF0D
:1006BE0010D0800EBC19006E00C0BCF40001FF2BE0
:1006CE00B8C4E1FFB9C4E2FF2D0EE66E0401B84BCB
:1006DE00B92B000E006EBD1908E10050BC1905E1E2
:1006EE000050BB1902E1BA51000A0BE1B8C4C0F4C4
:1006FE00B9C4C1F48E0EC26F000EC36FF0DE006A75
:10070E00C3D1BD51FF0A08E1BC51000A05E1BB513E
:10071E00000A02E1BA51000A0CE1B8C4C0F4B9C42F
:10072E00C1F4900EC26F000EC36FD9DEFFC000F091
:10073E00ABD1000E046E000E056E000E066E7F0E1F
:10074E00076EBAC400F0BBC401F0BCC402F0BDC455
:10075E0003F05EDE010ED8B0000E006E00521BE0FC
:10076E00BAC400F0BBC401F0BCC402F0BDC403F0B7
:10077E00000E046E000E056E200E066E820E076EC3
:10078E006ADC00C0BAF401C0BBF402C0BCF403C002
:10079E00BDF4BF07CED7000E046E000E056E200E00
:1007AE00066E820E076EBAC400F0BBC401F0BCC464
:1007BE0002F0BDC403F02CDE000ED8B0010E006EA8
:1007CE0000521BE0BAC400F0BBC401F0BCC402F07E
:1007DE00BDC403F0CD0E046ECC0E056E4C0E066E2F
:1007EE007B0E076E38DC00C0BAF401C0BBF402C049
:1007FE00BCF403C0BDF4BF2BCED7FF0EBA15086EE6
:10080E00FF0EBB15096E7F0EBC150A6E000EBD15D0
:10081E000B6E08C004F009C005F00AC006F00BC04C
:10082E0007F004360490053606360736000EBA1564
:10083E00006E000EBB15016E000EBC15026EFF0E93
:10084E00BD15036E00C0BAF401C0BBF402C0BCF407
:10085E0003C0BDF40450BA11006E0550BB11016EF9
:10086E000650BC11026E0750BD11036E00C0BAF4E3
:10087E0001C0BBF402C0BCF403C0BDF47F0EBD5D6D
:10088E00006E00C000F1010EBD6F00C004F0BAC4CE
:10089E0000F0BBC401F0BCC402F0BDC403F00450B0
:1008AE0007E000360090013602360336FF0FF8D708
:1008BE0000C0BAF401C0BBF402C0BCF403C0BDF466
:1008CE00B8C4E1FFB9C4E2FFBD51300FE66EB84BBC
:1008DE00B92B800EBF19006E800E010A005C08E372
:1008EE00800E060A006E800EBF19005C01E30AD06E
:1008FE00B8C4E1FFB9C4E2FF2E0EE66EB84BB92BB9
:10090E00010EBE6F060E0101006F0051000A56E087
:10091E000401BD6BBAC400F0BBC401F0BCC402F04C
:10092E00BDC403F0003600900136023603360036A1
:10093E000090013602360336BA510026BB51012211
:10094E00BC510222BD51032200C0BAF401C0BBF457
:10095E0002C0BCF403C0BDF4BAC400F0BBC401F0C5
:10096E00BCC402F0BDC403F000360090013602365E
:10097E00033600C0BAF401C0BBF402C0BCF403C01D
:10098E00BDF4B8C4E1FFB9C4E2FFBD51300FE66E4D
:10099E00B84BB92BBE51000A0EE1BF07BF51000A7A
:1009AE000AE1B8C4E1FFB9C4E2FF2E0EE66EB84B01
:1009BE00B92B010EBE6F01010007A7D7FF0E040170
:1009CE00B825E96EFF0EB921EA6EEE50300A05E148
:1009DE00010EB85F000EB95BF1D7FF0EB825E96EB8
:1009EE00FF0EB921EA6EEE502E0A04E1010EB85F39
:1009FE00000EB95BBF51000A41E0B8C4E1FFB9C4B3
:100A0E00E2FF650EE66EB84BB92B800EBF19006E75
:100A1E00800E000A005C0BE2B8C4E1FFB9C4E2FF2D
:100A2E002D0EE66EB84BB92BBF510008BF6FBFC479
:100A3E0000F1800E090A006E800EBF19005C0EE2F6
:100A4E000A0E046E00C100F08DDCB8C4E1FFB9C41B
:100A5E00E2FF0050300FE66EB84BB92B0A0E046E53
:100A6E0000C100F07FDC08C000F0B8C4E1FFB9C4DB
:100A7E00E2FF0050300FE66EB84BB92BB8C4E1FF61
:0A0A8E00B9C4E2FFE66A006A120034
:100A98000101006BB4C4E9FFB5C4EAFFEECFFFF073
:100AA8000001FF51000A0FE0FFC0C0F4ADDC0101F6
:100AB800002B00510401B425E96E000EB521EA6E41
:080AC800EECFFFF0EDD71200A4
:100AD000025006180E6E086A096A0B6A0350076412
:100AE0005BEF06F006500A6E068E028E03500B6E08
:100AF0000750036E000E0B64ABEF05F00B50075E62
:100B0000D8B44CEF06F0070E07641AEF06F0075E44
:100B100000C008F001C000F002C001F0026A074EF8
:100B20004CEF06F00764EFEF05F0075E00C008F039
:100B300001C000F0016A074E4CEF06F00764CDEFEC
:100B400005F0075E00C008F0006A074E4CEF06F0A3
:100B50000764B4EF05F00AC002F005C001F004C05C
:100B600000F0086A78EF07F0030E0764BFEF05F0A6
:100B7000075E08380F0B086E074E4CEF06F0D89052
:100B80000832074E4CEF06F0D8900832074E4CEF73
:100B900006F0D89008324CEF06F0030E0764DEEF43
:100BA00005F0075E08380F0B086E0038F00B0826BA
:100BB00000380F0B006E074E4CEF06F0D890003255
:100BC0000832074E4CEF06F0D89000320832074E3C
:100BD0004CEF06F0D890003208324CEF06F0030ECE
:100BE000076406EF06F0075E08380F0B086E003842
:100BF000F00B082600380F0B006E0138F00B0026B2
:100C000001380F0B016E074E4CEF06F0D890013201
:100C100000320832074E4CEF06F0D8900132003215
:100C20000832074E4CEF06F0D890013200320832FD
:100C30004CEF06F0030E076437EF06F0075E083846
:100C40000F0B086E0038F00B082600380F0B006EF3
:100C50000138F00B002601380F0B016E0238F00B43
:100C6000012602380F0B026E074E4CEF06F0D890AB
:100C70000232013200320832074E4CEF06F0D890B3
:100C80000232013200320832074E4CEF06F0D890A3
:100C90000232013200320832096A000E0EAE40EF15
:100CA00007F0081E001E011E021E082A0022012253
:100CB000022240EF07F00750D8A461EF06F078EF6A
:100CC00007F0096A02C00AF0028E068E0750035C24
:100CD000076ED8B433EF07F0070E076401EF07F093
:100CE000075E0450096E0550046E0650056E066AD4
:100CF000074E33EF07F0070E0764D6EF06F0075EE6
:100D00000450096E0550046E056A074E33EF07F074
:100D1000070E0764B4EF06F0075E0450096E046A1C
:100D2000074E33EF07F0070E07649BEF06F00AC08B
:100D300002F078EF07F0030E0764A6EF06F0075EF7
:100D400009380F0B096E074E33EF07F0D8900932C0
:100D5000074E33EF07F0D8900932074E33EF07F014
:100D6000D890093233EF07F0030E0764C5EF06F0A1
:100D7000075E09380F0B096E0438F00B092604389A
:100D80000F0B046E074E33EF07F0D8900432093290
:100D9000074E33EF07F0D89004320932074E33EF95
:100DA00007F0D8900432093233EF07F0030E0764DE
:100DB000EDEF06F0075E09380F0B096E0438F00BF3
:100DC000092604380F0B046E0538F00B042605388D
:100DD0000F0B056E074E33EF07F0D8900532043243
:100DE0000932074E33EF07F0D8900532043209324A
:100DF000074E33EF07F0D89005320432093233EF53
:100E000007F0030E07641EEF07F0075E09380F0BAB
:100E1000096E0438F00B092604380F0B046E0538F0
:100E2000F00B042605380F0B056E0638F00B05266F
:100E300006380F0B066E074E33EF07F0D8900632D8
:100E4000053204320932074E33EF07F0D8900632EC
:100E5000053204320932074E33EF07F0D8900632DC
:100E6000053204320932086A000E0EAE40EF07F078
:100E7000091E041E051E061E092A0422052206223A
:100E80000950082604500022055001220650022273
:100E90000EBE57EF07F0D8A066EF07F0023201321E
:100EA00000320832033E66EF07F072EF07F0D8B069
:100EB0006CEF07F0000E081E001E011E021E082A1D
:100EC0000022012202220A7E6CEF07F0010E0C6E56
:100ED000C8EC00F07AEF07F0020E0C6EC8EC00F0E0
:100EE0007AEF07F0040E0C6E1FEC00F07AEF07F0BB
:060EF000000E0C6E120062
:100EF6000050086E0150006E016A026A036A0B6AAE
:100F06000C6A960E036E0A6A00C001F008C000F073
:0A0F1600086A026AA1EC02F0120062
:100F20000450000A12E10550000A0FE10650000AC1
:100F30000CE10750000A09E1FF0E006EFF0E016E82
:100F40007F0E026EFF0E036EA8D0086A096A075072
:100F5000D8B43BEF08F00350D8B440EF08F002508B
:100F600006180A6E028E068E0E6A02C008F001C0D4
:100F70000CF000C00DF004500D5E0550D8A0053CEB
:100F80000C5E0650D8A0063C085E086A0C6A0D6A22
:100F9000D8A0D2EF07F0D8900232013200320832E6
:100FA000010E0E6E0750035ED8A0DFEF07F07E0E35
:100FB0000E240326D8B045EF08F0E5EF07F07E0ECB
:100FC0000E240326D8A04AEF08F0180E0B6E0D363B
:100FD0000C3608360036013602360E360450005EF6
:100FE0000550D8A0053C015E0650D8A0063C025E24
:100FF00006340E120EA000EF08F00D800BEF08F083
:10100000045000260550D8B0053C01260650D8B043
:10101000062802260D900B2EE7EF07F031EF08F0BF
:10102000D8900036013602360E360450005E055068
:10103000D8A0053C015E0650D8A0063C025E0634EE
:101040000E10010B0D26D8B00C2AD8B4082AD8A44B
:1010500031EF08F008320C320D32032AD8B445EFD4
:1010600008F00AAE089E0850026E0C50016E0D503A
:10107000006E4DEF08F0010E9DEC02F04DEF08F010
:10108000020E2BEC00F04DEF08F0040E1FEC00F008
:0C1090004DEF08F0080E0EEC00F012000E
:10109C0022EC17F00101016B026B036B046B056B07
:1010AC00066B076B086B096B0A6B0B6B0C6B0D6B90
:1010BC000E6B0F6B106B116B126B136B146B156B40
:1010CC00166B176B186B196B1A6B1B6B1C6B1D6BF0
:1010DC001E6B1F6B206B216B226B236B246B256BA0
:1010EC00266B276B286B0A0EC16EFF0E926E080ED4
:1010FC00936E816AFF0E946E826AFF0E956E836A00
:10110C00B886B06ACF0EAF6EAC84E2EC02F0000190
:10111C000F0EFB6F000EFC6FF96BFA6BFD6BFE6B29
:10112C002EEC03F000C0FDF0000E0001FE6FFF6B13
:10113C000EEC03F000C029F101C02AF1010EFF6F83
:10114C000EEC03F000C02BF101C02CF1020EFF6F6E
:10115C000EEC03F000C02DF101C02EF1030EFF6F59
:10116C000EEC03F000C02FF101C030F1040EFF6F44
:10117C000EEC03F000C031F101C032F10101016B42
:10118C00026B036B046B056B066B076B086B096BCF
:10119C000A6B0B6B0C6B0D6B0E6B0F6B106B116B7F
:1011AC00126B136B146B156B166B176B186B196B2F
:1011BC001A6B1B6B1C6B1D6B1E6B1F6B206B216BDF
:1011CC00226B236B246B256B266B276B286B336B85
:1011DC00346B0001FC510101345D04E10001FB5151
:1011EC000101335DD8B0B6D133C100F034C101F088
:1011FC00003600900136003600900136350E002482
:10120C00F86F010E0120F96F29C100F02AC101F01D
:10121C006CDE000E046E000E056E200E066E810E46
:10122C00076E32EC00F0000E046E000E056E000E20
:10123C00066E890E076E6EDEF8C1E1FFF9C1E2FFA2
:10124C0000C0E6FF01C0E6FF02C0E6FF03C0E6FFF8
:10125C0033C100F034C101F0003600900136003685
:10126C0000900136710E00240101F86F010E01206F
:10127C00F96F2BC100F02CC101F037DE000E046EAB
:10128C00000E056E200E066E810E076E32EC00F01D
:10129C00000E046E000E056E000E066E890E076EB3
:1012AC0039DEF8C1E1FFF9C1E2FF00C0E6FF01C081
:1012BC00E6FF02C0E6FF03C0E6FF33C100F034C115
:1012CC0001F0003600900136003600900136AD0E6C
:1012DC0000240101F86F010E0120F96F2DC100F0FF
:1012EC002EC101F002DE000E046E000E056E200E03
:1012FC00066E810E076E32EC00F0000E046E000ECE
:10130C00056E000E066E890E076E04DEF8C1E1FF55
:10131C00F9C1E2FF00C0E6FF01C0E6FF02C0E6FF34
:10132C0003C0E6FF33C100F034C101F00036009079
:10133C000136003600900136000E00240101F86FD2
:10134C00040E0120F96F2FC100F030C101F0CDDD8A
:10135C00000E046E000E056E200E066E810E076EDA
:10136C0032EC00F0000E046E000E056E000E066EE0
:10137C00890E076ECFDDF8C1E1FFF9C1E2FF00C0B5
:10138C00E6FF01C0E6FF02C0E6FF03C0E6FF33C183
:10139C0000F034C101F000360090013600360090A8
:1013AC0001363C0E00240101F86F040E0120F96F88
:1013BC0031C100F032C101F098DD000E046E000E58
:1013CC00056E200E066E810E076E32EC00F0000EDC
:1013DC00046E000E056E000E066E890E076E9ADD09
:1013EC00F8C1E1FFF9C1E2FF00C0E6FF01C0E6FF72
:1013FC0002C0E6FF03C0E6FF33C1F8F134C1F9F1D6
:10140C000101F837F891F937F837F891F937350EBB
:10141C00F825D96E010EF921DA6E01C100F002C176
:10142C0001F003C102F004C103F0DECF04F0DECF03
:10143C0005F0DECF06F0DECF07F068EC05F000C05B
:10144C0001F101C002F102C003F103C004F1710EFD
:10145C00F825D96E010EF921DA6E05C100F006C12E
:10146C0001F007C102F008C103F0DECF04F0DECFBB
:10147C0005F0DECF06F0DECF07F068EC05F000C01B
:10148C0005F101C006F102C007F103C008F1AD0E71
:10149C00F825D96E010EF921DA6E09C100F00AC1E6
:1014AC0001F00BC102F00CC103F0DECF04F0DECF73
:1014BC0005F0DECF06F0DECF07F068EC05F000C0DB
:1014CC0009F101C00AF102C00BF103C00CF1000ECE
:1014DC00F825D96E040EF921DA6E0DC100F00EC19B
:1014EC0001F00FC102F010C103F0DECF04F0DECF2B
:1014FC0005F0DECF06F0DECF07F068EC05F000C09B
:10150C000DF101C00EF102C00FF103C010F13C0E41
:10151C00F825D96E040EF921DA6E11C100F012C152
:10152C0001F013C102F014C103F0DECF04F0DECFE2
:10153C0005F0DECF06F0DECF07F068EC05F000C05A
:10154C0011F101C012F102C013F103C014F1334BBD
:10155C00342B3FD6FBC000F0FCC001F0C6DC00C051
:10156C00FCF101C0FDF102C0FEF103C0FFF1FCC1B2
:10157C0004F0FDC105F0FEC106F0FFC107F001C18A
:10158C0000F002C101F003C102F004C103F0C2DC9F
:10159C0000C019F101C01AF102C01BF103C01CF10B
:1015AC00FCC104F0FDC105F0FEC106F0FFC107F05F
:1015BC0005C100F006C101F007C102F008C103F03B
:1015CC00A9DC00C0F8F101C0F9F102C0FAF103C0C6
:1015DC00FBF1F8C115F1F9C116F1FAC117F1FBC114
:1015EC0018F1FCC104F0FDC105F0FEC106F0FFC10D
:1015FC0007F009C100F00AC101F00BC102F00CC1E7
:10160C0003F088DC00C01DF101C01EF102C01FF107
:10161C0003C020F1FCC104F0FDC105F0FEC106F0D1
:10162C00FFC107F00DC100F00EC101F00FC102F0B7
:10163C0010C103F06FDC00C021F101C022F102C027
:10164C0023F103C024F1FCC104F0FDC105F0FEC17F
:10165C0006F0FFC107F011C100F012C101F013C177
:10166C0002F014C103F056DC00C025F101C026F1D4
:10167C0002C027F103C028F1F8C1B4F4F9C1B5F4E4
:10168C00FAC1B6F4FBC1B7F4E90E0401B86F010E50
:10169C00B96F37EC03F019C1B4F41AC1B5F41BC11E
:1016AC00B6F41CC1B7F4780EB86F040EB96F37ECF2
:1016BC0003F01DC1B4F41EC1B5F41FC1B6F420C1B2
:1016CC00B7F4870EB86F040EB96F37EC03F021C175
:1016DC00B4F422C1B5F423C1B6F424C1B7F4960E08
:1016EC00B86F040EB96F37EC03F025C1B4F426C102
:1016FC00B5F427C1B6F428C1B7F4A50EB86F040E23
:10170C00B96F37EC03F00101ED6B04017C6B8B6B53
:10171C009A6BA96B000E0001FE1902E1180EFD195F
:10172C00D8A4A1EF16F0E90E0401B46F010EB56F49
:10173C004CEC05F00A0E0401C06F08EC02F00D0E23
:10174C000401C06F08EC02F0780E0401B46F040EB3
:10175C00B56F4CEC05F00A0E0401C06F08EC02F0FA
:10176C000D0E0401C06F08EC02F0870E0401B46F7B
:10177C00040EB56F4CEC05F00A0E0401C06F08ECBA
:10178C0002F00D0E0401C06F08EC02F0960E04017D
:10179C00B46F040EB56F4CEC05F00A0E0401C06F6B
:1017AC0008EC02F00D0E0401C06F08EC02F0A50E5F
:1017BC000401B46F040EB56F4CEC05F00A0E040175
:1017CC00C06F08EC02F00D0E0401C06F08EC02F0C3
:1017DC000A0E0401C06F08EC02F00D0E0401C06F7C
:1017EC0008EC02F0660E046E660E056E660E066E52
:1017FC007F0E076E15C100F016C101F017C102F083
:10180C0018C103F00FEC02F0000ED8B0010E006E00
:10181C00005219E015C104F016C105F017C106F00D
:10182C0018C107F0330E006E330E016E730E026E8C
:10183C007F0E036E0FEC02F0000ED8B0010E006E9E
:10184C00005201E01DD2E10E046E7A0E056E740E8C
:10185C00066E7F0E076E15C100F016C101F017C1A0
:10186C0002F018C103F00FEC02F0000ED8B0010E1C
:10187C00006E005219E015C104F016C105F017C135
:10188C0006F018C107F0520E006EB80E016E7E0EF7
:10189C00026E7F0E036E0FEC02F0000ED8B0010E3C
:1018AC00006E005201E067D2000E046E000E056E51
:1018BC00000E066E800E076E15C100F016C101F009
:1018CC0017C102F018C103F00FEC02F0000ED8B0F3
:1018DC00010E006E005219E015C104F016C105F09E
:1018EC0017C106F018C107F08F0E006EC20E016E04
:1018FC00050E026E800E036E0FEC02F0000ED8B0D7
:10190C00010E006E005201E01BD3660E046E660ED3
:10191C00056E060E066E800E076E15C100F016C120
:10192C0001F017C102F018C103F00FEC02F0000E29
:10193C00D8B0010E006E005219E015C104F016C1AA
:10194C0005F017C106F018C107F0F60E006E280E50
:10195C00016E0C0E026E800E036E0FEC02F0000E88
:10196C00D8B0010E006E005201E0C7D3CD0E046E4C
:10197C00CC0E056E0C0E066E800E076E15C100F0B7
:10198C0016C101F017C102F018C103F00FEC02F000
:10199C00000ED8B0010E006E00521AE015C104F012
:1019AC0016C105F017C106F018C107F05C0E006EE9
:1019BC008F0E016E120E026E800E036E0FEC02F093
:1019CC00000ED8B0010E006E005202E0EFEF10F0E6
:1019DC00330E046E330E056E130E066E800E076EFC
:1019EC0015C100F016C101F017C102F018C103F0C7
:1019FC000FEC02F0000ED8B0010E006E00521AE08F
:101A0C0015C104F016C105F017C106F018C107F096
:101A1C00C30E006EF50E016E180E026E800E036E74
:101A2C000FEC02F0000ED8B0010E006E005202E076
:101A3C0015EF12F09A0E046E990E056E190E066EC5
:101A4C00800E076E15C100F016C101F017C102F02F
:101A5C0018C103F00FEC02F0000ED8B0010E006EAE
:101A6C00005221E015C104F016C105F017C106F0B3
:101A7C0018C107F0CD0E006ECC0E016E1C0E026E5E
:101A8C00800E036E0FEC02F0000ED8B0010E006E4B
:101A9C00005209E0CA0E0401B46F000EB56F4CEC95
:101AAC0005F08DEF08F07B0E046E140E056E1E0E05
:101ABC00066E800E076E15C100F016C101F017C13D
:101ACC0002F018C103F00FEC02F0000ED8B0010EBA
:101ADC00006E005221E015C104F016C105F017C1CB
:101AEC0006F018C107F0AE0E006E470E016E210E07
:101AFC00026E800E036E0FEC02F0000ED8B0010ED9
:101B0C00006E005209E0CC0E0401B46F000EB56FEC
:101B1C004CEC05F08DEF08F0B80E046E1E0E056E41
:101B2C00250E066E800E076E15C100F016C101F071
:101B3C0017C102F018C103F00FEC02F0000ED8B080
:101B4C00010E006E005221E015C104F016C105F023
:101B5C0017C106F018C107F03D0E006E0A0E016E9B
:101B6C00270E026E800E036E0FEC02F0000ED8B042
:101B7C00010E006E005209E0C80E0401B46F000E95
:101B8C00B56F4CEC05F08DEF08F0C30E046EF50E3E
:101B9C00056E280E066E800E076E15C100F016C17C
:101BAC0001F017C102F018C103F00FEC02F0000EA7
:101BBC00D8B0010E006E005221E015C104F016C120
:101BCC0005F017C106F018C107F01F0E006E850E48
:101BDC00016E2B0E026E800E036E0FEC02F0000EE7
:101BEC00D8B0010E006E005209E0C40E0401B46FAF
:101BFC00000EB56F4CEC05F08DEF08F0D70E046EAF
:101C0C00A30E056E300E066E800E076E15C100F029
:101C1C0016C101F017C102F018C103F00FEC02F06D
:101C2C00000ED8B0010E006E005221E015C104F078
:101C3C0016C105F017C106F018C107F00A0E006EA8
:101C4C00D70E016E330E026E800E036E0FEC02F097
:101C5C00000ED8B0010E006E005209E0C60E040151
:101C6C00B46F000EB56F4CEC05F08DEF08F0CE0E96
:101C7C000401B46F000EB56F4CEC05F08DEF08F05D
:101C8C001F0E046E850E056E0B0E066E800E076E13
:101C9C0019C100F01AC101F01BC102F01CC103F004
:101CAC000FEC02F0000ED8B0010E006E005221E0D5
:101CBC0019C104F01AC105F01BC106F01CC107F0D4
:101CCC00520E006EB80E016E0E0E026E800E036E7A
:101CDC000FEC02F0000ED8B0010E006E005209E0BD
:101CEC00E50E0401B46F000EB56F4CEC05F08DEFF2
:101CFC0008F0660E046E660E056E360E066E800ECD
:101D0C00076E19C100F01AC101F01BC102F01CC111
:101D1C0003F00FEC02F0000ED8B0010E006E005272
:101D2C0021E019C104F01AC105F01BC106F01CC159
:101D3C0007F09A0E006E990E016E390E026E800E2F
:101D4C00036E0FEC02F0000ED8B0010E006E0052C4
:101D5C0009E0E70E0401B46F000EB56F4CEC05F012
:101D6C008DEF08F0DB0E0401B46F000EB56F4CEC78
:101D7C0005F08DEF08F0330E046E330E056E730E06
:101D8C00066E7F0E076E19C100F01AC101F01BC15F
:101D9C0002F01CC103F00FEC02F0000ED8B0010EE3
:101DAC00006E005221E019C104F01AC105F01BC1EC
:101DBC0006F01CC107F0EC0E006E510E016E780E91
:101DCC00026E7F0E036E0FEC02F0000ED8B0010E07
:101DDC00006E005209E0D70E0401B46F000EB56F0F
:101DEC004CEC05F08DEF08F0E10E046E7A0E056EEA
:101DFC00140E066E800E076E19C100F01AC101F0A8
:101E0C001BC102F01CC103F00FEC02F0000ED8B0A5
:101E1C00010E006E005221E019C104F01AC105F048
:101E2C001BC106F01CC107F0660E006E660E016E3B
:101E3C00160E026E800E036E0FEC02F0000ED8B080
:101E4C00010E006E005209E0D90E0401B46F000EB1
:101E5C00B56F4CEC05F08DEF08F0C30E046EF50E6B
:101E6C00056E280E066E800E076E19C100F01AC1A1
:101E7C0001F01BC102F01CC103F00FEC02F0000ECC
:101E8C00D8B0010E006E005221E019C104F01AC145
:101E9C0005F01BC106F01CC107F0480E006EE10EE8
:101EAC00016E2A0E026E800E036E0FEC02F0000E15
:101EBC00D8B0010E006E005209E05B0E0401B46F45
:101ECC00000EB56F4CEC05F08DEF08F07B0E046E38
:101EDC00140E056E0E0E066E800E076E19C100F004
:101EEC001AC101F01BC102F01CC103F00FEC02F08F
:101EFC00000ED8B0010E006E005219E019C104F0AA
:101F0C001AC105F01BC106F01CC107F0850E006E4E
:101F1C00EB0E016E110E026E800E036E0FEC02F0D2
:101F2C00000ED8B0010E006E005201E05DD35D0EC4
:101F3C000401B46F000EB56F4CEC05F08DEF08F09A
:101F4C00330E046E330E056E730E066E7F0E076E27
:101F5C0019C100F01AC101F01BC102F01CC103F041
:101F6C000FEC02F0000ED8B0010E006E005221E012
:101F7C0019C104F01AC105F01BC106F01CC107F011
:101F8C00EC0E006E510E016E780E026E7F0E036E1B
:101F9C000FEC02F0000ED8B0010E006E005209E0FA
:101FAC00590E0401B46F000EB56F4CEC05F08DEFBB
:101FBC0008F0C30E046EF50E056E280E066E800E2C
:101FCC00076E19C100F01AC101F01BC102F01CC14F
:101FDC0003F00FEC02F0000ED8B0010E006E0052B0
:101FEC0021E019C104F01AC105F01BC106F01CC197
:101FFC0007F0480E006EE10E016E2A0E026E800E86
:10200C00036E0FEC02F0000ED8B0010E006E005201
:10201C0009E04D0E0401B46F000EB56F4CEC05F0E9
:10202C008DEF08F03D0E046E0A0E056E070E066E5F
:10203C00800E076E19C100F01AC101F01BC102F02D
:10204C001CC103F00FEC02F0000ED8B0010E006EB4
:10205C00005219E019C104F01AC105F01BC106F0B9
:10206C001CC107F01F0E006E850E016E0B0E026E6A
:10207C00800E036E0FEC02F0000ED8B0010E006E55
:10208C00005201E02CD37B0E046E140E056E0E0E66
:10209C00066E800E076E19C100F01AC101F01BC14B
:1020AC0002F01CC103F00FEC02F0000ED8B0010ED0
:1020BC00006E005219E019C104F01AC105F01BC1E1
:1020CC0006F01CC107F0D70E006EA30E016E100EA9
:1020DC00026E800E036E0FEC02F0000ED8B0010EF3
:1020EC00006E005201E06ED34F0E0401B46F000E6F
:1020FC00B56F4CEC05F08DEF08F01F0E046E850EDD
:10210C00056E3B0E066E800E076E19C100F01AC1EB
:10211C0001F01BC102F01CC103F00FEC02F0000E29
:10212C00D8B0010E006E00521AE019C104F01AC1A9
:10213C0005F01BC106F01CC107F0A40E006E700E5A
:10214C00016E3D0E026E800E036E0FEC02F0000E5F
:10215C00D8B0010E006E005202E07DEF16F0F60EC4
:10216C00046E280E056E0C0E066E800E076E19C1DD
:10217C0000F01AC101F01BC102F01CC103F00FECFE
:10218C0002F0000ED8B0010E006E005219E019C119
:10219C0004F01AC105F01BC106F01CC107F0D70EE4
:1021AC00006EA30E016E100E026E800E036E0FEC0D
:1021BC0002F0000ED8B0010E006E005201E07DD38B
:1021CC00670E0401B46F000EB56F4CEC05F08DEF8B
:1021DC0008F0F60E046E280E056E0C0E066E800EC0
:1021EC00076E19C100F01AC101F01BC102F01CC12D
:1021FC0003F00FEC02F0000ED8B0010E006E00528E
:10220C0021E019C104F01AC105F01BC106F01CC174
:10221C0007F07B0E006E140E016E0E0E026E800E19
:10222C00036E0FEC02F0000ED8B0010E006E0052DF
:10223C0009E0770E0401B46F000EB56F4CEC05F09D
:10224C008DEF08F0A40E046E700E056E2D0E066E4A
:10225C00800E076E19C100F01AC101F01BC102F00B
:10226C001CC103F00FEC02F0000ED8B0010E006E92
:10227C00005221E019C104F01AC105F01BC106F08F
:10228C001CC107F0290E006E5C0E016E2F0E026E43
:10229C00800E036E0FEC02F0000ED8B0010E006E33
:1022AC00005209E0790E0401B46F000EB56F4CECCE
:1022BC0005F08DEF08F0D70E046EA30E056E300EF0
:1022CC00066E800E076E19C100F01AC101F01BC119
:1022DC0002F01CC103F00FEC02F0000ED8B0010E9E
:1022EC00006E005221E019C104F01AC105F01BC1A7
:1022FC0006F01CC107F00A0E006ED70E016E330EED
:10230C00026E800E036E0FEC02F0000ED8B0010EC0
:10231C00006E005209E0750E0401B46F000EB56F2B
:10232C004CEC05F08DEF08F0CD0E046ECC0E056E66
:10233C003C0E066E800E076E19C100F01AC101F03A
:10234C001BC102F01CC103F00FEC02F0000ED8B060
:10235C00010E006E005221E019C104F01AC105F003
:10236C001BC106F01CC107F0290E006E5C0E016E3D
:10237C003F0E026E800E036E0FEC02F0000ED8B012
:10238C00010E006E005209E0710E0401B46F000ED4
:10239C00B56F4CEC05F08DEF08F0140E046EAE0E1C
:1023AC00056E470E066E800E076E19C100F01AC13D
:1023BC0001F01BC102F01CC103F00FEC02F0000E87
:1023CC00D8B0010E006E005221E019C104F01AC100
:1023DC0005F01BC106F01CC107F09A0E006E990E99
:1023EC00016E490E026E800E036E0FEC02F0000EB1
:1023FC00D8B0010E006E005209E0730E0401B46FE8
:10240C00000EB56F4CEC05F08DEF08F0430E040197
:10241C00B46F000EB56F4CEC05F08DEF08F0D70ED5
:10242C00046EA30E056E300E066E800E076E19C17B
:10243C0000F01AC101F01BC102F01CC103F00FEC3B
:10244C0002F0000ED8B0010E006E005221E019C14E
:10245C0004F01AC105F01BC106F01CC107F00A0EEE
:10246C00006ED70E016E330E026E800E036E0FECF3
:10247C0002F0000ED8B0010E006E005209E0230EDF
:10248C000401B46F000EB56F4CEC05F08DEF08F045
:10249C00CD0E046ECC0E056E3C0E066E800E076ED5
:1024AC0019C100F01AC101F01BC102F01CC103F0EC
:1024BC000FEC02F0000ED8B0010E006E005221E0BD
:1024CC0019C104F01AC105F01BC106F01CC107F0BC
:1024DC00290E006E5C0E016E3F0E026E800E036EB6
:1024EC000FEC02F0000ED8B0010E006E005209E0A5
:1024FC00250E0401B46F000EB56F4CEC05F08DEF9A
:10250C0008F0140E046EAE0E056E470E066E800EAD
:10251C00076E19C100F01AC101F01BC102F01CC1F9
:10252C0003F00FEC02F0000ED8B0010E006E00525A
:10253C0021E019C104F01AC105F01BC106F01CC141
:10254C0007F09A0E006E990E016E490E026E800E07
:10255C00036E0FEC02F0000ED8B0010E006E0052AC
:10256C0009E0210E0401B46F000EB56F4CEC05F0C0
:10257C008DEF08F0CD0E046ECC0E056E2C0E066E93
:10258C00800E076E19C100F01AC101F01BC102F0D8
:10259C001CC103F00FEC02F0000ED8B0010E006E5F
:1025AC00005219E019C104F01AC105F01BC106F064
:1025BC001CC107F0000E006E000E016E300E026E94
:1025CC00800E036E0FEC02F0000ED8B0010E006E00
:1025DC00005201E098D2150E0401B46F000EB56FD5
:1025EC004CEC05F08DEF08F0C30E046EF50E056E85
:1025FC00080E066E800E076E1DC100F01EC101F0A4
:10260C001FC102F020C103F00FEC02F0000ED8B095
:10261C00010E006E005221E01DC104F01EC105F038
:10262C001FC106F020C107F01F0E006E850E016E53
:10263C000B0E026E800E036E0FEC02F0000ED8B083
:10264C00010E006E005209E01F0E0401B46F000E63
:10265C00B56F4CEC05F08DEF08F0CD0E046ECC0E82
:10266C00056E2C0E066E800E076E1DC100F01EC18D
:10267C0001F01FC102F020C103F00FEC02F0000EBC
:10268C00D8B0010E006E005221E01DC104F01EC135
:10269C0005F01FC106F020C107F0330E006E330E9B
:1026AC00016E330E026E800E036E0FEC02F0000E04
:1026BC00D8B0010E006E005209E0270E0401B46F71
:1026CC00000EB56F4CEC05F08DEF08F0370E0401E1
:1026DC00B46F000EB56F4CEC05F08DEF08F08F0E5B
:1026EC00046EC20E056E050E066E800E076E1DC1C1
:1026FC0000F01EC101F01FC102F020C103F00FEC6D
:10270C0002F0000ED8B0010E006E005221E01DC187
:10271C0004F01EC105F01FC106F020C107F0EC0E3D
:10272C00006E510E016E080E026E800E036E0FECE1
:10273C0002F0000ED8B0010E006E005209E0410EFE
:10274C000401B46F000EB56F4CEC05F08DEF08F082
:10275C009A0E046E990E056E790E066E7F0E076E3C
:10276C001DC100F01EC101F01FC102F020C103F019
:10277C000FEC02F0000ED8B0010E006E005219E002
:10278C001DC104F01EC105F01FC106F020C107F0E9
:10279C00000E006E000E016E000E026E800E036EB7
:1027AC000FEC02F0000ED8B0010E006E005201E0EA
:1027BC0025D22D0E0401B46F000EB56F4CEC05F054
:1027CC008DEF08F0E10E046E7A0E056E040E066EA7
:1027DC00800E076E1DC100F01EC101F01FC102F07A
:1027EC0020C103F00FEC02F0000ED8B0010E006E09
:1027FC00005221E01DC104F01EC105F01FC106F0FE
:10280C0020C107F03D0E006E0A0E016E070E026E1F
:10281C00800E036E0FEC02F0000ED8B0010E006EAD
:10282C00005209E0290E0401B46F000EB56F4CEC98
:10283C0005F08DEF08F0AE0E046E470E056E310EEE
:10284C00066E800E076E1DC100F01EC101F01FC187
:10285C0002F020C103F00FEC02F0000ED8B0010E14
:10286C00006E005221E01DC104F01EC105F01FC115
:10287C0006F020C107F0330E006E330E016E330EDE
:10288C00026E800E036E0FEC02F0000ED8B0010E3B
:10289C00006E005209E02B0E0401B46F000EB56FF0
:1028AC004CEC05F08DEF08F09C0E0401B46F000E9B
:1028BC00B56F4CEC05F08DEF08F0E10E046E7A0E5E
:1028CC00056E740E066E7F0E076E1DC100F01EC1E4
:1028DC0001F01FC102F020C103F00FEC02F0000E5A
:1028EC00D8B0010E006E005221E01DC104F01EC1D3
:1028FC0005F01FC106F020C107F0480E006EE10E76
:10290C00016E7A0E026E7F0E036E0FEC02F0000E5B
:10291C00D8B0010E006E005209E0A60E0401B46F8F
:10292C00000EB56F4CEC05F08DEF08F0E10E046E67
:10293C007A0E056E040E066E800E076E1DC100F039
:10294C001EC101F01FC102F020C103F00FEC02F018
:10295C00000ED8B0010E006E005221E01DC104F033
:10296C001EC105F01FC106F020C107F03D0E006E20
:10297C000A0E016E070E026E800E036E0FEC02F053
:10298C00000ED8B0010E006E005209E09A0E040140
:10299C00B46F000EB56F4CEC05F08DEF08F0A40E83
:1029AC00046E700E056E1D0E066E800E076E1DC138
:1029BC0000F01EC101F01FC102F020C103F00FECAA
:1029CC0002F0000ED8B0010E006E005221E01DC1C5
:1029DC0004F01EC105F01FC106F020C107F0850EE2
:1029EC00006EEB0E016E210E026E800E036E0FEC6C
:1029FC0002F0000ED8B0010E006E005209E0960EE7
:102A0C000401B46F000EB56F4CEC05F08DEF08F0BF
:102A1C00330E046E330E056E230E066E800E076E9B
:102A2C001DC100F01EC101F01FC102F020C103F056
:102A3C000FEC02F0000ED8B0010E006E005221E037
:102A4C001DC104F01EC105F01FC106F020C107F026
:102A5C008F0E006EC20E016E250E026E800E036E7E
:102A6C000FEC02F0000ED8B0010E006E005209E01F
:102A7C00980E0401B46F000EB56F4CEC05F08DEFA1
:102A8C0008F01F0E046E850E056E3B0E066E800E52
:102A9C00076E1DC100F01EC101F01FC102F020C164
:102AAC0003F00FEC02F0000ED8B0010E006E0052D5
:102ABC0021E01DC104F01EC105F01FC106F020C1AC
:102ACC0007F0A40E006E700E016E3D0E026E800EAD
:102ADC00036E0FEC02F0000ED8B0010E006E005227
:102AEC0009E0A80E0401B46F000EB56F4CEC05F0B4
:102AFC008DEF08F0B80E0401B46F000EB56F4CECFE
:102B0C0005F08DEF08F09A0E046E990E056E290EE5
:102B1C00066E800E076E1DC100F01EC101F01FC1B4
:102B2C0002F020C103F00FEC02F0000ED8B0010E41
:102B3C00006E005221E01DC104F01EC105F01FC142
:102B4C0006F020C107F0F60E006E280E016E2C0E5A
:102B5C00026E800E036E0FEC02F0000ED8B0010E68
:102B6C00006E005209E0C20E0401B46F000EB56F86
:102B7C004CEC05F08DEF08F0480E046EE10E056E7E
:102B8C003A0E066E800E076E1DC100F01EC101F0DC
:102B9C001FC102F020C103F00FEC02F0000ED8B000
:102BAC00010E006E005221E01DC104F01EC105F0A3
:102BBC001FC106F020C107F07B0E006E140E016ED3
:102BCC003E0E026E800E036E0FEC02F0000ED8B0BB
:102BDC00010E006E005209E0B60E0401B46F000E37
:102BEC00B56F4CEC05F08DEF08F0AA0E0401B46F34
:102BFC00000EB56F4CEC05F08DEF08F0EC0E046E8A
:102C0C00510E056E780E066E7F0E076E21C100F018
:102C1C0022C101F023C102F024C103F00FEC02F039
:102C2C00000ED8B0010E006E005221E021C104F05C
:102C3C0022C105F023C106F024C107F0F60E006E88
:102C4C00280E016E7C0E026E7F0E036E0FEC02F0EE
:102C5C00000ED8B0010E006E005209E0B40E040153
:102C6C00B46F000EB56F4CEC05F08DEF08F09A0EBA
:102C7C00046E990E056E290E066E800E076E21C12C
:102C8C0000F022C101F023C102F024C103F00FECCB
:102C9C0002F0000ED8B0010E006E005221E021C1EE
:102CAC0004F022C105F023C106F024C107F01F0E69
:102CBC00006E850E016E2B0E026E800E036E0FECF5
:102CCC0002F0000ED8B0010E006E005209E0940E16
:102CDC000401B46F000EB56F4CEC05F08DEF08F0ED
:102CEC00820E0401B46F000EB56F4CEC05F0000EB3
:102CFC000001FA1902E1000EF91908E18C0E040129
:102D0C00B46F000EB56F4CEC05F015D0060E0B6EC3
:102D1C00130E0C6EAD0E0D6E0D2EFED70C2EFCD7B9
:102D2C000B2EFAD700000000800E0401B46F000EC9
:0C2D3C00B56F4CEC05F08DEF08F0FFD7F0
:102E440010EE15F0D40E006E010E016E480EF66EF3
:0E2E54002D0EF76E000EF86EDAEC02F0120092
:0A2D48006E756C6C20494E44350096
:022D52004B0034
:022D540041003C
:022D56004F002C
:022D58004E002B
:022D5A00510026
:022D5C0048002D
:022D5E00510022
:0A2D60006E756C6C204D4944310083
:0A2D6A006E756C6C204D494430007A
:022D7400550008
:0A2D76006E756C6C20494E44340069
:022D80005400FD
:0A2D82006E756C6C20494E4432005F
:022D8C004600FF
:022D8E005400EF
:0A2D90006E756C6C20494E44310052
:0A2D9A006E756C6C20494E44330046
:022DA4004E00DF
:022DA6004100EA
:022DA8004F00DA
:022DAA004200E5
:022DAC004300E2
:012DAE0030F4
:042DAF004E614E0023
:022DB3004A00D4
:0A2DB5006E756C6C2052494E300020
:022DBF004900C9
:022DC1003000E0
:042DC300494E46002F
:022DC7005600B4
:022DC9005200B6
:022DCB005000B6
:022DCD004800BC
:0A2DCF006E756C6C204D4944320013
:022DD9004200B6
:022DDB004700AF
:0A2DDD006E756C6C204D4944340003
:022DE700570093
:022DE900580090
:0A2DEB006E756C6C204D49443300F6
:022DF500430099
:022DF700450095
:022DF9005A007E
:022DFB004D0089
:022DFD0058007C
:022DFF0053007F
:092E01006E756C6C20544D42000A
:022E0A00460080
:022E0C00440080
:0A2E0E006E756C6C20494E443000D4
:022E18004C006C
:022E1A0059005D
:042E1C0000000000B2
:042E200000000000AE
:042E240000000000AA
:042E280000000000A6
:042E2C0000000000A2
:042E3000000000009E
:042E3400000000009A
:042E38000000000096
:042E3C000000000092
:042E4000000000008E
:020000040030CA
:0E000000000C1F1EFF8281FF034003600340BF
:00000001FF
